:400000000010002011000000810300008103000008B500F005FC00F0B5F90000F8B572B680220021D2004D4800F09DFF8023DA004B48002100F097FF0022101C4949FF25E5
:4000400054584700261CAE431031E3B2351CC919002B07D00F78013B7E194F78DBB237700231F5E7E4B204320019102AE6D1C0223D4D9104296080203C4F3D4C3D4A3E4DC5
:40008000C10399263E6023603C4F1060C02429603B4A3C49600340263E6010603A4F0B603A4B022531263A4C1D6099203E6039498023394F256002041E06384C0A60802018
:4000C0003E603749374E384B2260384F82050A601E603C78062025433D703D78344A05433D7011688026F3020B43324F324C13603878324E2178171C3578172D05D9304A32
:400100007078B178033E9642F6D12E4B2E4C2F4E1925186021600520356000F031FD2C482C4A01780520116000F060FE3C682A4B2A4D23402A483B60202610272F6080215B
:400140000660284F284D294E294A2A4B2A480C0614601C602F600660F8BDC04600300F4000400F40840F000004000140100001400C00014000000440080004400001044051
:40018000080104400803044008040440000404401804044000500F4004500F4010500F4018500F40100001002001054000700F4000010B40CCF1FF0FCDF1FF0FC9F1FF0F22
:4001C000BDF1FF0F1CFF0B4020FF0B402CFF0B40E5F1FF0F28FF0B40FFFFFBFF08020240200202401000008000000240AF04008008010B4004010B404000024010B5064CBD
:400200002378002B07D10548002802D0044800E000BF0121217010BDF000002000000000800F000008B5084B002B03D00748084900E000BF07480168002903D0064A002A54
:4002400000D0904708BDC04600000000800F0000F4000020D00000200000000010B562B600F084FC00280ED16524012000F0A8FD00F07CFC002806D1013CE4B2002CF4D1BB
:40028000034B40221A6000F063FC00F09BFAFEE7C000002008B500F0EDFA00F025FB00F08DFB08BD70B5054B0D1C161C0024C9B21C8000F077FB3580201C70BD0C010020E2
:4002C000F0B50A275F4387B002900591161C00252A4CBD4219DA00F0F5FA80B220802388002B0CD00220278800F06AFD00F0EAFA81B221802288BA42F4D8002706E0012095
:40030000013500F05DFDADB2E2E7052700253580208800282FD023883088019301994218059993B233808B4221D201982A1893B2049304998D4209D002994819039000F084
:40034000A7FA039A01351070ADB2F2E772B62088019A831A99B2218062B602984219013A1378172BD4D0052000F02AFDD0E7308000F0BAFA0527381C07B0F0BD0C0100204C
:4003800000B5FEE770B50F490F4A01394B1C14D0506895681468031C1E1AAE4202D040CC40C3F9E7D0681D1C5C1B844202D0002640C3F9E710320139E8E700F0A5FDFFF7B3
:4003C0004DFFFEE701000000D40F000008B500239A00032B02D80D48815800E00C490D4801338150302BF3D1FFF718FE0A490B4B086800221A60002800D108608022D305EE
:40040000186801210843186008BDC046000000008103000000000020C0000020C80000200047000038B5041C013806280BD800F061FD2406260F11080400174820E0174BF7
:4004400009E0174B07E0002000F0ACFC002302E0144B00E0144B5A78187800021043022C04D0032C07D0012C15D104E0040A0302234398B20FE000BA0DE00C4800E00C4858
:40048000C578817842780378180628430D02284311040843E3E738BDD87F0000C57F0000D47F0000D27F0000D67F0000C17F0000C97F000038B50220FFF7B4FF051C032097
:4004C000FFF7B0FF6C1CE1010C180220FFF7AAFF0023421CD201191CA24209D21078451EEDB2FD2D00D80121C318DBB20132F3E705485B420578DCB2AC4201D0062002E0E1
:400500000029FBD0002038BDC07F0000F0B5A34CA544FFF7BFFE62B600250095002603AF962124A849003A1CFF23FFF7C9FE0028F5D139880423062967D924AA1478012CCC
:4005400063D193236B4492221F786A4413783C021C4324AF3A19177953790197E71D9C4603238F4251D89179042317294DD1E3189BB2002B08D0BAAA8949D7187A18177881
:40058000013BC01980B2F3E762464042019F110282B239430823914237D168E0342900D09AE0012D00D0F6E0032C00D0F3E06FA80021802200F0D7FC80266FA988193519A8
:4005C0002639E21EFF39AEB200F0C4FC832E00D0DAE0BC797979009F26020E43002F0AD1391C802204A800F0BEFCFF2004A900F0EDFA01200090301C6FA900F0E7FA0125D4
:40060000002800D1C3E000260A23002168469130012703706A4624AC6B4692330E32277000200F1D197058701180BBB25C4FBAACE418E4192778013BC0199BB280B2002BD0
:40064000F4D14442A0B2BAAF564C7B181F19564C38701F19554C000A38701B19172707311F7089B224A89623FFF71CFE57E724AF79783B79081C31380A2801D90523C4E707
:4006800000F02EFC0611FC8C2FFC32428C507800012D00D07FE0002C7DD1FFF70BFF434243413B7163E0012D75D1012C73D1002B71D13F4A25A8146821889524CF090770EA
:4006C0003A0A97209627FF216C446F446844397022700370042199E7012D5CD1022C5AD96BE7012D57D119E7012D54D19620371943009F424DD86FAA901925A9221C00F0FC
:4007000029FCBEB2002380E7002C44D104AB294A191CA0CAA0C125AF21CB21C708210125231C73E7012D36D1032C34D196226A449521177869440C7838021A02204387180A
:40074000FF01002280210139CC5D1219D2B20029F9D1002B08D1FF2806D1174B174918780C78171A3A1BD2B2504224AB1871002301214BE7FFF79EFE002802D110488024E5
:40078000046000F011FB06E00125002601E0061CB8E7032339E7042337E7C04614FDFFFFA7FDFFFFACFDFFFFADFDFFFFAEFDFFFFD4000020A80F0000D07F0000D17F000081
:4007C000C0000020144810B50368002219680B1C013BBF2B03D01C781219D2B2F8E740680478A21AD3B2A34201D1002902D1002000F0D8FAFFF75EFE084C2168221C4029D8
:4008000001D0002803D000231360FFF77FFE8020206000F0C9FA10BDD4000020C000002008B50B4B10201A680A49024000D10A600B68802B0BD1002201200A60FFF7F2FD4E
:40084000002804D00120FFF7EDFDFFF7E9FD08BD00030B40C000002008B5054B802219681006084318600A2000F088FA08BDC0460000064010B5054C2378002B03D100F056
:40088000BFF801202070FFF7E7FF10BD10010020094B00B51968094B1A6891420AD019684A1C4039481E8141484205490240885C1A6000E0002000BDAC010020240100201A
:4008C00068010020064B074A1B68116800B58B4202D31268981A02E010684133181A00BDAC010020240100200C4A0D4B002130B5106811601D68802464022C431C601D68E3
:40090000084C2C401C60084B084C1D68084B25601970084D08492960106030BDC80F064004030640FFFFFEFF24010020AC010020A9010020C00F0640ED0F0000124910B5F0
:400940000A68531C3F3A541EA241544223400F4A1468A342FBD00C681268944208D10C4C0F2224682240082A02D00A4A10600AE0094C02222260094CC0B2E0540B60084BD0
:4009800019680A431A6010BD200100201C0100200802064040020640800F064028010020880F064038B5041C4518AC4204D02078FFF7C4FF0134F8E738BD00000B4A0023D3
:4009C000116810B513600A4B80201C684002204318601C68074820401860074B07481C68022399430460116010BDC046880F064004020640FFFFFEFF1C0100202001002095
:400A00001D4A1E4B1E4810B51E4900241A60046001221D4B1D480A601D490360072008601C491D4804600A601C4A0A2013601C4B1C6000F0ADF90A20032100F07FF9194974
:400A40000A2000F06FF918481849194A194B04600C60146018491C60184A194B04200860146018481C601849184A194B04600C7014601C6010BDC0460B000002000006408C
:400A8000400006404800064007000080000306400403064044000640100306400002064004020640010E0000880E0640C80E0640480F0640080F0640C80F0640880F064093
:400AC000AC01002024010020A9010020200100201C0100200E4B8422D00418601968802250020843186019680A481960C3239A00094B026000210948094A196009490A4BB2
:400B000010600A4A19600A4910601C20086070470001054024010540380105401027000014010540881300000C010540080105402801054008B500F02CF8044B01211A682E
:400B40000A431A6000F029F808BDC0460000054010B5054C2378002B03D1FFF7BBFF01202070FFF7E7FF10BD18010020024B18680106C80F7047C0460400044000000000EA
:400B80000230800804D0C0460138FDD1C046C0467047EFF3108072B6704780F310887047094A10B513680020141C1A0F11070A2A08D0002806D1F0221206914200D1181C93
:400BC0002368F2E710BDC04608000040F0B5071CABB00124FF2800D995E0002900D192E0002508ACB623D7207F2223706070A5700AA8E5706260802200F0ACF92E1C291CFC
:400C00002A1C0195B31C98002558002D02D05219294301960136202EF4D1002A02D1002968D100E0002100910291384D384E2C60384C34603268002AFCDB2B68FFF7B0FF37
:400C4000041E60D1FFF7A5FF334B05901968B6200491D8226946BFB2087603974A7668460C210A5A294F42832C49294A06A8386011601F1C3368002BFCDB2B68A020010649
:400C80008B4201D0002B2ED1009A002A2CD0002180220AA800F067F9019B029902331D4A08AC980001512C6032603468002CFCDB2B68FFF775FF041E16D107ABB6201870A3
:400CC000D92168460C225970115A10485980144A03600F4B1A6031680029FCDB2B68A0252E06B34200D01C1C049838600598FFF754FF08E0019E01250236B300E058009583
:400D00000290E25091E7201C2BB0F0BD08000040040000400400008008010B40050000800600008000B51F2800D901BE024A800083181868196000BD4000002038B5041C26
:400D40000D1E032D00D901BE1F2C00D901BEFFF720FFA308084A99008B1803221440944019680634A2409143A5400C1C2C431C60FFF713FF38BDC04600E400E01F23184038
:400D8000024A0121814011607047C04600E100E01F231840024A0121814011607047C04680E100E001BE7047034B04491A6890B2084318607047C0460CED00E00400FA05AC
:400DC00010B5041C8022074B1002844205D91868FFF7D6FE04496418F4E758686043FFF7CFFE10BDDC0000200080FFFF08B5034B197A4843FFF7C4FE08BDC046DC00002061
:400E0000264B10B51868002800D0804724490A6852071DD5234C23681A0716D0224B234A186811684B1C40394C1EA1414C42204923400C68A34203D11E4B20221A70E9E787
:400E40001D49C0B2C8541360E4E71C49042008601B4A1468A20720D51A4B0F2118680140082917D0184A194B1468186884420CD01C68621C3F3C601E8441614214480A40F5
:400E8000845C14490C601A60E6E7134C022122688A432260114B0220186010BD14010020CC0F06400803064040030640AC01002024010020A901002068010020C00F06407A
:400EC0008C0F064008020640200100201C0100202801002040020640880F0640800F064002B4714649084900095649008E4402BC7047C04602B4714649084900095C49000F
:400F00008E4402BC7047C04670B50E4B0E4D0024E81A85101E1CAC4204D0A100725890470134F8E700F044F80849094A0E1C541AA5100024AC4204D0A300F0588047013494
:400F4000F8E770BDBC0F0000BC0F0000BC0F0000C40F000010B50023934203D0CC5CC4540133F9E710BD00B58218031C934202D019700133FAE700BD08100000B100000047
:400F80000000000001330F4003410F4004430F4002600F40E61062048E04D84018808C40C608E608020111019311C80411140101F8B5C046F8BC08BC9E4670472502000015
:400FC000CD030000F8B5C046F8BC08BC9E467047FD010000E80F0000D000002020000000C00000000000000000000000780F00007C0F00000000E02EC05D00001800000041
:4010000000366E010000000000000000000000000000000000000000000000000000000000000000000000000000000000000000000000000000000000000000000000000B
:401040000000000000000000000000000000000000000000000000000000000000000000000000000000000000000000000000000000000000000000000000000000000070
:401080000010002091100000691400006914000080B500AF024B83F3088800F0E9F9C0460010002080B584B000AF021CFB1D1A70224A3B1C0B3312781A70214A3B1C0A333A
:4010C00012781A701F4B1B68013BFB601AE01E4B1868391C0B31FA68131C5B009B18C31801331B780B70184B1868391C0A31FA68131C5B009B18C31802331B780B70FB6895
:40110000013BFB60FB68002B0ADB0F4B1968FA68131C5B009B185B5CFA1D12789A42D6D90A4B3A1C0B3212781A60094B3A1C0A3212781A60BD4604B080BDC046CCF1FF0FAD
:40114000CDF1FF0F282B0000D40000201CFF0B4020FF0B4080B500AF1F4B1F4A12688021C9020A431A601820FFF79CFF1B4B19221A60052000F048FB194B1A4A1278D2B216
:401180001A60052000F000FC134B134A1168164A0A401A60154B11221A60154B30221A60144B20221A60144B10221A60134B802212061A60124B802212061A60114B124A12
:4011C0001A60124B124A1A60124B134A1A60134B134A1A60BD4680BD00010B402CFF0B4028FF0B40E5F1FF0FFFFFFBFF080202400C020240140202401802024008010B40E5
:4012000004010B4000000240FE00008040000240FE0000C08000024003000080040002401000008080B582B000AF72B6FB1D00221A7023E0FB1D1A78131C5B009B185B00FC
:40124000394A9B183B603B681A78597809020A43997809040A43DB781B0613431A1C3B6819795B791B020B439BB2101C191C00F08BF9FB1DFA1D127801321A70FB1D1B781D
:40128000012BD7D9294A2A4B101C191C00F08CF9284BEE2212041A60274BEE2212021A60264B99221A60264B30221A60254B902292021A60244B3C221A60244B3C221A60D0
:4012C000234BD82212011A60224B06221A60224B31221A60214B06221A60214B992212041A60204B992212041A601F4B992212041A601E4BC02292051A601D4B1C4A1278CC
:40130000D2B202210A43D2B21A70194B184A1278D2B206210A43D2B21A70FFF71BFF00F083F9BD4602B080BDE82A0000F42A0000042B0000000001400C00014010000140A9
:40134000000004400800044000010440180104400803044000040440080404401804044000500F4010500F4030500F4038500F4000700F4010B5064C2378002B07D105483F
:40138000002802D0044800E000BF0121217010BD6801002000000000D82A000008B5084B002B03D00748084900E000BF07480168002903D0064A002A00D0904708BDC04650
:4013C00000000000D82A00006C010020D000002000000000B0B582B002AF00F07BF962B600F08CFB00F0CAFBC04600F0F3FB031C002BFAD1184B00221A6010E0164B1C68B1
:40140000154B1B68181C00F0F3FB031C191C134B6200D152104B1B685A1C0F4B1A600E4B1B68032BEADD0D4B1B881A1C0B4B5B880A4989880D1C0949C9880C1C0848094923
:401440000095019400F044FF054B181C00F0C2F90A2000F055F9C5E7A4010020E8010020A8010020DC2A000080B500AFFEE7C04680B586B000AF254B7B61254B3B61234B80
:401480007B61234B3B6132E03B691B68FB603B695B68BB603B699B683B6000237B600CE0FB681A68BB681A60BB680433BB60FB680433FB607B6804337B607A683B689A42C2
:4014C000EED13B69DB683B6000237B6008E0BB6800221A60BB680433BB607B6804337B607A683B689A42F2D13B6910333B617B695A1E9341DBB27A69013A7A61002BC3D180
:4015000000F0AEFEFFF766FFFEE7C04601000000002C000080B582B000AF00237B600FE07B68032B04D8134B7A689200D35800E0114B124A796889008B507B6801337B60E0
:401540007B682F2BECD9FFF76DFE0D4B00221A600C4B1B68002B02D10A4B00221A608023DB058022D205126801210A431A60BD4602B080BD801000006914000000000020CD
:40158000C8000020C000002080B582B000AF786039607A683B68101C00211A1C00F08FFEBD4602B080BDC04680B586B000AF7860396000233B6100237B612EE07B699B0089
:4015C0007A68D3181B68BB603B1C0F33BA681A70BB68FF229343BB6017E03B695B003A68D3181B781A1CBB68D3183A69520039688A1852781A703B6901333B613B1C0F3313
:401600003A1C0F321278013A1A703B1C0F331B78002BE2D17B6901337B617B69032BCDD9BD4606B080BDC04680B500AF012000F003F8BD4680BDC04680B584B000AF021CA6
:40164000FB1D1A70154B1B68FB60FB1D1B78002B05D0FB68802212061343FB6003E0FB685B005B08FB600D4BFA681A600C4B1B68FB60FB1D1B78002B05D0FB688022920403
:401680001343FB6003E0FA68064B1340FB60044BFA681A60BD4604B080BDC04680031A4008010B40FFFFFFFD80B500AF00F03EF8BD4680BD80B500AF054B054A12688021FD
:4016C00009060A431A6000F017F8BD4680BDC0460000064080B500AF064B1B78002B04D1FFF7E2FF034B01221A70FFF7E3FFBD4680BDC0468401002080B500AFBD4680BD08
:4017000080B582B000AF7860C046064B1A680F231340082BF9D0044B7A681A60BD4602B080BDC046080206404002064080B500AF174B184A1A60184B00221A60174B012240
:401740001A60174B174A1A60174B07221A60174B00221A60164B01221A60164B114A1A60154B00221A60154B00221A60144B00221A60144B00221A60134B00221A60134B35
:4017800004221A60124B00221A60BD4680BDC046000006400B000002400006404800064000030640070000800403064010030640440006400002064004020640880E064073
:4017C000C80E0640480F0640080F0640C80F0640880F064080B584B000AF78600023FB6009E07A68FB68D3181B78181CFFF788FFFB680133FB607A68FB68D3181B78002B2E
:40180000EFD1BD4604B080BD0230800804D0C0460138FDD1C046C0467047EFF3108072B6704780F31088704780B584B000AF021C3960FB1D1A7080239B05FB60FB1D1B78C9
:401840001F2B02D9002000F095F8FB1D1B7810339B00FA68D3181B68BB60FB1D1B7810339B00FA68D3183A681A60BB68181CBD4604B080BD90B587B000AF0A1CFB1D011C6F
:401880001970BB1D1A70BB1D1B78032B02D9002000F070F8FB1D1B781F2B02D9002000F069F8FB1D1A7803231340DB0006337B613C1C1334FFF7B1FF031C2370FB1D1B785B
:4018C0009B08DBB29B0014495B181B68FB607B690322111C99400B1CDA43FB681340FB60BB1D1A787B69111C99400B1CFA681343FB60FB1D1B789B08DBB29B00064A9B1804
:40190000FA681A603B1C13331B78181CFFF789FFBD4607B090BDC04600E400E080B582B000AF021CFB1D1A70064BFA1D11781F220A400121081C9040021C1A60BD4602B063
:4019400080BDC04600E100E080B582B000AF021CFB1D1A70064BFA1D11781F220A400121081C9040021C1A60BD4602B080BDC04680E100E080B582B000AF021CFB1D1A7054
:4019800001BEBD4602B080BD80B582B000AF021CBB1D1A80BB1D1B88044A12785343181CFFF732FFBD4602B080BDC046E000002080B582B000AF00237B6007E00A4A7B6862
:4019C000D31800221A707B6801337B607B68032BF4D900F00BF8002000F0E2FA00F016F9BD4602B080BDC046F801002080B582B000AF244B1B68DAB2234B1A70224B1B7805
:401A00007B607B680F2293437B60204B1B78DBB21A1C0F2313407A6813437B607B68F02293437B60194B1B78DBB21A1CF02313407A6813437B60134B7A681A60144B154A5C
:401A40001A60154B154A1A60154B1B687B607A68144B13407B607B68C022D20013437B600F4B7A681A600F20FFF76EFF0E4B0F20191CFFF7D9FE0F200321FFF7FBFEBD46A7
:401A800002B080BD00FF0840F001002062F1FF0F0800084000020001040008400008A00110000140FFF0FFFF1520000080B582B000AF00F05DFB00F025FB0020002100F024
:401AC0002DFB0020002100F05FFB00F043FB00F00BFB084B1B687B607B68074A13437B60044B7A681A600F20FFF718FFBD4602B080BDC046040008400010088080B500AF52
:401B0000094B1B78002B04D1FFF752FF064B01221A70FFF7CBFF054B044A12688021C9030A431A60BD4680BD8C0100200400084080B584B000AF021CFB1D1A70FB1DFA1D2D
:401B4000127801321A70FB1D1B78042B0CD0FB1D1B78094A101C191C00F03AFA031CFB60FB68002BEAD000E0C046FB1D1B78181CBD4604B080BDC046E800002080B500AF78
:401B8000124B00221A70124BFF221A70104B1B78DBB2181CFFF7CCFF031C1A1C0C4B1A700B4B1B78DBB2032B0DD8084B1B78DBB201221343DAB2054B1A70054B1B78DBB223
:401BC000181C00F02FF9BD4680BDC0468D0100208E01002080B500AF044B1B78DBB21A1C01231340181CBD4680BDC0468D01002080B582B000AF7860034B7A685200D35A31
:401C0000181CBD4602B080BD9001002080B582B000AF00237B6006E07B68181C00F070F87B6801337B607B68032BF5D9BD4602B080BDC04690B587B000AF78602C4A7B683F
:401C4000D3181B787B612B4A7B68D3181B783A1C1332191C4900CB181370264A7B68D3181A783B1C123392001A703C1C1134FFF7D4FD031C2370204B7A699200D3581B6889
:401C8000FB603B1C12331B780F22111C99400B1CDA43FB681340FB603B1C12331B780422141C9C40231CFA681343FB60134B7A699200D358114A796989008A581268391CE6
:401CC000133109780720041C8C40211CC9430A401A60094B7A699200D358FA681A603B1C11331B78181CFFF79CFDBD4607B090BD2C2B0000402B0000682B00007C2B00003B
:401D000090B589B000AF7860404A7B68D3181B787B613F4A7B68D3181A783B1C133392001A703B4A7B68D3181B783A1C1232191C4900CB1813700023FB61364A7B68D31804
:401D40001B78BB61344B7A699200D358324A796989008A581268391C133109780F20041C8C40211CC9430A401A60BB69022B01D10023BB61BB69022B45D0BB69012B01D027
:401D80000623FB613C1C1134FFF747FD031C2370224B7A699200D3581B68FB603B1C12331B780722111C99400B1CDA43FB681340FB603B1C12331B78FA69141C9C40231C9A
:401DC000FA681343FB60154B7A699200D358FA681A603B1C11331B78181CFFF722FD104B7A699200D3580E4A796989008A58126807487968411809780120041C8C40211C0F
:401E0000C9430A401A60BD4609B090BD2C2B0000402B0000F8010020682B00007C2B0000902B000090B587B000AF78603B1C173332497A688A1812781A703B1C17331A780F
:401E40002F4B9200D3583B612E4A7B68D3181B78013B9BB2181C002100F060F92A4A7B68D3181B78013B9BB2181C002100F08CF90F20FFF769FD254B1B68FB60FA68244BBD
:401E80001340FB60234A7B68D3181B781A1C22497B68CB181B781B041343FA681343FB601A4BFA681A601D4B1B68FB60FA681C4B1340FB60FB681B4A1343FB600F20FFF788
:401EC0002DFD7B68181CFFF7B5FE3C1C0B34FFF7A4FC031C2370114BFA681A606F20FFF793FC114B3A691A603B1C0B331B78181CFFF797FCBD4607B090BDC046642B0000D3
:401F00004C2B0000602B00005C2B00000800084000FF80FF442B0000482B000004000840FF1FDFFF200020000C00084080B584B000AF7860144B1B6899B2144B7A685200DC
:401F4000D1527B68181CFFF7DBFE0F20FFF7FCFC0F4B1B68FB60FA680E4B1340FB60FB68A02212021343FB60094BFA681A600A4B094A1168094A0A401A600F20FFF7CEFC59
:401F8000BD4604B080BDC0460C0008409001002004000840FF1FDFFF0800084000FF80FF80B584B000AF78607A68032313407B60064B1B68FB607B685B02FA681343FB6064
:401FC000024BFA681A60BD4604B080BD0400084080B584B000AF786039603B68DB08FB603A680723134001229A403B1C0B331A707A68FB68D3181B783A1C0B3212781340A0
:40200000DBB2002B01D0012300E00023181CBD4604B080BD80B500AF0F20FFF795FC2C4B01221A602B4B1B78DBB2181CFFF77EFF294B1B78DBB2DBB25BB2002B08DA264B31
:402040001B78DBB201229343DAB2234B1A703AE0204B1B78DBB2181CFFF76AFD031C1A1C1C4B1A701B4B1B78DBB2032B06D8194B1B78DBB2181CFFF7D5FE24E0164B1B783C
:40208000DBB201229343DAB2134B1A70124B1B78DBB21A1C4023134015D0104B00221A700DE00E4B1B780D4A12780D49895C0D4AD1540A4B1B780133DAB2084B1A70074B89
:4020C0001B78002BEDD00F20FFF728FCBD4680BD140008408E0100208D01002098010020F4010020E800002080B500AF044B044A1268802109060A431A60BD4680BDC04695
:402100000000024080B500AF034B034A1268520052081A60BD4680BD0000024080B584B000AF0A1CBB1D011C19807B1D1A70084B1B681B0C1B04FB60BB1D1A88FB68134324
:40214000BB60034BBA681A60BD4604B080BDC0460000024080B500AF044B044A1268802109060A431A60BD4680BDC0464000024080B500AF034B034A1268520052081A60C5
:40218000BD4680BD4000024080B584B000AF0A1CBB1D011C19807B1D1A70084B1B681B0C1B04FB60BB1D1A88FB681343BB60034BBA681A60BD4604B080BDC0464000024044
:4021C000002934D00123002210B488422CD301242407A14204D2814202D209011B01F8E7E400A14204D2814202D249005B00F8E7884201D3401A1A434C08A04202D3001B08
:402200005C0822438C08A04202D3001B9C082243CC08A04202D3001BDC082243002803D01B0901D00909E3E7101C10BC7047002801D00020C04307B4024802A1401802904E
:4022400003BDC046190000000029F0D003B5FFF7B9FF0EBC4243891A1847C0467047C04670B50E4B0E4D0024E81A85101E1CAC4204D0A100725890470134F8E700F0AEFC9C
:402280000849094A0E1C541AA5100024AC4204D0A300F05880470134F8E770BDE82B0000E82B0000E82B0000F02B000010B50023934203D0CC5CC4540133F9E710BD00B59A
:4022C0008218031C934202D019700133FAE700BD0EB400B59CB01DAB02A904CB822202900861920009488A810122886048615042074AC88110681D9A019300F063F8029908
:4023000000230B701CB008BC03B01847FFFFFF7F60010020F7B501919168071C141C002940D190239289D80002423BD02568216963696E1A58000096C6180098F50FAB1910
:4023400001305D10A84201DB009D0235381C53050FD5291C00F004FB061E13D02169009AFFF7A4FFA7891649802239401143A18111E02A1C00F04AFB061E0CD1381C216932
:4023800000F0A6FA0C203860A58940263543A5810124604213E0009B6561F018ED1A26612060A560A668002E08DD694627680A793A70A3680137013B2760A3600020FEBDF1
:4023C0007FFBFFFFF0B5A1B0049007938B890E1C171C19060FD53269002A0CD1402100F0BFFA30603061002803D1049C0C262660D6E04020706108AD00212024302369618E
:402400006C76AB763C1C2278002A04D1E01B069019D003970FE0252AF8D00134F3E70399321C09780498FFF775FF039A01320392013000D1AFE003990698CB1B8342EEDB6A
:402440000D9F3A180D922178002900D1A3E001206A4600234742633201342B60EB606F60AB601370AB65504F2178381C052200F0C1FA002807D0C71B2B680120B8401843D9
:4024800028600134EFE72B68D90603D568462021633001701A0703D56A462B276332177021782A2901D00B9B0EE0079A1068111D0791002801DB0B9004E00222474213437F
:4024C000EF602B60013409E020783038092804D80A277B4301341B18F6E70B9323782E2B18D161782A2909D1079B02341A68191D0791002A0DDA012042420AE00134002203
:4025000020783038092804D80A277A4301341218F6E70992254F2178381C032200F06AFA002806D02B68C21B4021914019432960013421781E4806222976671C00F05AFAA8
:40254000002817D01B4800280BD12868079C0723C10501D5E41800E007349C430834079414E007AA00920498291C321C124B00E000BF07E007AC00940498291C321C0E4B07
:4025800000F08CF8059005994A1C04D00D99059A8C180D9436E7B589690601D40D9801E00127784221B0F0BDA62B0000AC2B0000B02B00000000000015230000F7B5151C93
:4025C00001930A698B6800900C1C934200DA131C201C2B6043300178002901D001332B602668B00602D52F6802372F602268062616401CD0261C4336377822683E1C731E8E
:402600009E4192061CD5A319181C40303021271CC17045373A784133DA70023610E0617E0098019A089FB847013006D00136E3682868191A8E42F2DBDCE7012040422CE0E6
:402640000027B7420ADAE119433109780098019A089B98470130F0D00137F2E72B68256806212940E6680025042903D1F01AC743FD170540A2682669B24201DD931BED1801
:402680000027AF4208DAA17E0098019A089EB0470130D2D00137F4E70020FEBDF0B50D1C8BB0433507930590069204950A7E0C1C109B6E2A00D1A8E012D8632A24D009D8F7
:4026C000002A00D1B1E0582A00D0C1E045310A707D4D51E0642A1FD0692A00D0B8E01BE0732A00D1A5E009D86F2A2BD0702A00D0AEE00A68202616430E6038E0752A21D076
:40270000782A00D0A4E032E018680E1C051D1D600368423633709EE026681F68300606D4750604D5381D186000203D5E02E03D1D1D603D68644B002D3BDA04992D226D4259
:402740000A7036E027681E683D0605D4780603D5351D1D60358802E0311D196035685A4B207E039308276F281ED00A271CE0271C45377820554D38701A682668111D03953F
:402780001960300603D4750601D5158800E01568F00702D520231E4326601027002D03D12668202086432660261C43360022327001E003930A276168A160002903DB20687B
:4027C000042398432060002D02D1049E00290ED0049E281C391CFFF737FD039A013E515C281C3170391CFFF7EBFC051EF1D1049B9A1B2261082F33D12768F80730D5606857
:4028000090422DDC013262602AE008681E684969050606D4450604D5351D1D603368198003E0321D1A603768396000202061049E16E01E68311D19603668301C00F01EF9AF
:4028400065682061A84200D925612369636004E0261C4236327001212161049F00223A7007990598009109AA211C069BFFF7A6FE01300CD0351C2269AB1B93420ADA29781D
:402880000598069A079FB84701350130F3D10122504217E02668B10705D4099BE068984210DA181C0EE00025E7680998391A8D42F3DA617E0598069A079EB0470130E6D0CB
:4028C0000135F1E70BB0F0BDB72B0000C82B000030B5002940D004390B68002B00DAC9181E4A1368141C002B02D14B60116033E099420FD20D684A199A4205D110682B1898
:4029000055680B604D6000E04B60216024E08A4203D8131C5A68002AF9D11D685C198C420BD10C682D1958191D60904214D1116852686C181C605A600EE08C4202D90C2172
:40294000016009E008680D18954203D114685268001908604A60596030BDC0469C01002070B50323CD1C9D430835061C0C2D01D20C2501E0002D2DDB8D422BD31C4A13688F
:40298000111C1C1C002C12D02068421B0CD40B2A02D92260A41815E0A34202D166680E601CE065685D6019E0231C6468EAE7301C291C00F051F8421C0CD0C41C03218C4376
:4029C000844201D1256009E0211A301C00F044F80130F7D10C243460002008E0201C0B300722211D9043431A01D05D42E55070BD9C01002000B5C9B28218904204D00378D1
:402A00008B4202D00130F8E7002000BDF8B5061C0C1C151C002904D1111CFFF7A1FF041C18E0002A03D1FFF753FF2C1C12E000F02CF8A8420ED2301C291CFFF791FF071E6F
:402A400007D0211C2A1CFFF731FC301C211CFFF73FFF3C1C201CF8BD38B5074C0023051C081C236000F01CF8431C03D12168002900D0296038BDC046FC0100200023C25C0D
:402A80000133002AFBD1581E704704390B6800B5181F002B02DAC8581918081F00BD00000A4A00B51368002B0CD018186946884202D81060181C00BD054B0C2201201A605F
:402AC0004342F7E7034B1360EFE7C046A0010020FC010020000200200000000025752025752025752025750000300F40000400400F40000404320F4003330F4003420F405A
:402B000007430F4038223E1158045F011D3189208D1170027410DC03642088108C22A412D801E002E4030000040000000101010120000000100000000800000004000000C7
:402B40000504030250505050505050500000FF3F0000FF3F0000FF3F0000FF3F0101010104040404000102030000014004000140080001400C0001401000014008000440FC
:402B80000801044008020440080304400804044000000440000104400002044000030440000404404300232D302B2000686C4C006566674546470030313233343536373877
:402BC00039414243444546003031323334353637383961626364656600000000F8B5C046F8BC08BC9E4670479D13000015150000F8B5C046F8BC08BC9E46704775130000B7
:402C0000102C0000D0000020980000009800000000000000C0F1FF0F00366E01C05D0000180000000000E02E0F00000008010440080104400801044008010440000000004E
:402C400000000000000000000000000000000000000000000000000000000000A42B0000000000000000000000000000000000000000000000000000000000000000000085
:402C80000000000000000000000000000000000000000000000000000000000000000000FC00002000000000000000000000000000000000000000000000000000000000F8
:402CC00000000000000000000000000000000000000000000000000000000000000000000000000000000000000000000000000000000000000000000000000000000000D4
:402D00000000000000000000000000000000000000000000000000000000000000000000000000000000000000000000000000000000000000000000000000000000000093
:402D40000000000000000000000000000000000000000000000000000000000000000000000000000000000000000000000000000000000000000000000000000000000053
:402D80000000000000000000000000000000000000000000000000000000000000000000000000000000000000000000000000000000000000000000000000000000000013
:407FC000319110000020000000801C0000000000000001000000000000000000000000000000000000000000000000000000000000000000000000000000000000000000F2
:0200000490303A
:02000000291CB9
:0200000490402A
:20000000FFFFFFFF00000000000000000000000000000000000000000000000000000000E4
:0200000490501A
:0C000000000204C81193110004D63AAFAE
:0200000490600A
:0100000001FE
:00000001FF